:020000042022B8
:10010000EF00804C170700001307072A73105730C1
:10011000F3275030E31EF7FE1306800073300630DD
:100120007310403073104034732540F163060500AE
:1001300073503030735020307310003473102034FB
:10014000731010347310003A7310203A93000000BB
:10015000130100009301000013020000930200004D
:100160001303000093030000130400009304000035
:10017000130500009305000013060000930600001D
:100180001307000093070000130800009308000005
:100190001309000093090000130A0000930A0000ED
:1001A000130B0000930B0000130C0000930C0000D5
:1001B000130D0000930D0000130E0000930E0000BD
:1001C000130F0000930F0000B7E2010073A002308C
:1001D000732540F16304050073103000F3221030E2
:1001E00063C402006FF09FFF9771DEE99381816F16
:1001F000732540F1930500006302B50293051000DA
:100200006308B50293052000630EB5029305300024
:100210006304B50493054000630AB5041707DEE7DD
:10022000130747DE1711DEE71301C1DD6F0000057C
:100230001717DEE7130707DD1721DEE7130181DC5F
:100240006F00C0031727DEE71307C7DB1731DEE7B0
:10025000130141DB6F0080021737DEE7130787DAEF
:100260001741DEE7130101DA6F0040011747DEE7AF
:10027000130747D91751DEE71301C1D893070100CF
:100280002330070013078700E34CF7FE130101FC3E
:1002900013020100732540F1930500006310B508B7
:1002A00017B7E0E9130707BA97D7E0E9938787B94B
:1002B0002330070013078700E34CF7FE13061000F6
:1002C0006306C000EF00C02AEF00C02837077001A6
:1002D0001B07070223000700371770011B070702DF
:1002E00023000700372770011B07070223000700C0
:1002F000373770011B0707022300070037477001DB
:100300001B07070223000700130502006F00405A75
:1003100013000000130000006FF09FFF1306800021
:100320007330063073104030731040341306800071
:1003300073104630B74634129B8616329715DEE7A7
:10034000938545C803E60500E39EC6FEB755341203
:100350009B8585672320B2000F10000073005010AA
:100360007326403413768600E30A06FE13068000E7
:10037000733006307310403073104034B7250200DC
:100380009B8555D99395E500938515322320B200BE
:10039000130502006F00E04213000000130000008C
:1003A0006FF09FFF130101F0233821002338A104CF
:1003B000233CB10423341100233C3100233041029B
:1003C0002334510223386102233C7102233081041B
:1003D000233491042330C1062334D1062338E106A7
:1003E000233CF10623300109233411092338210964
:1003F000233C31092330410B2334510B2338610B4B
:10040000233C710B2330810D2334910D2338A10D32
:10041000233CB10D2330C10F2334D10F2338E10F1A
:10042000233CF10F13050100F325303473261034FB
:10043000EF00100583308100833181010332010216
:1004400083328102033301038333810303340104C4
:1004500083348104033501058335810503360106A4
:100460008336810603370107833781070338010884
:10047000833881080339010983398109033A010A64
:10048000833A810A033B010B833B810B033C010C44
:10049000833C810C033D010D833D810D033E010E24
:1004A000833E810E033F010F833F810F0331010122
:1004B00013010110730020301306800073104630C2
:1004C00013068000732006300F10000067800000C4
:1004D0006358B50023300500130585006FF05FFFFA
:1004E00067800000630AB5002330C500130585004E
:1004F000130686006FF01FFF67800000638EA50063
:10050000638CC5008336050023B0D5001305850034
:10051000938585006FF0DFFE678000009717DEE0AF
:100520009387476E17D700001307C78B6382E702D4
:100530009716DEE09386066D638CD70003260700CE
:1005400023A0C7009387470013074700E3E8D7FEBF
:1005500067800000170600001306C6BA37070008B8
:100560003376E60063100602B70720086F00C0006C
:1005700037070001B7270001233007001307870062
:10058000E34CF7FE67800000B70701029B878716E0
:100590001307050083A3070023207700B707010294
:1005A0009B8787141387050083A307002320770008
:1005B000B70701029B8787101307060083A3070074
:1005C000232077006780000093870000130000005D
:1005D000EF004002130000001300000013000000B1
:1005E00013000000130000001300000093800700B8
:1005F00067800000130000001300000013000000DB
:1006000013000000130000001300000067800000CA
:100610002A83B682054323A06200014323A262001D
:10062000328323B462002A8323B862002E8323BC62
:1006300062001B03F00F1313830123A262000D431A
:1006400023A062000F00F00F8280AA8203A30200A1
:1006500013732300E31C03FE23A0020082802A837D
:10066000AE8311C6230073007D16050365FE8280EC
:100670002A8309CA83830500230073007D160503BE
:1006800085056DFA82802A8309CA839305002310A9
:1006900073007916090389056DFA82802A8309CAD5
:1006A00083A30500232073007116110391056DFAD1
:1006B00082802A8309CA83B3050023307300611640
:1006C0002103A1056DFA8280000037350020114614
:1006D00097050000938585431305051251BF41110D
:1006E0001776DEE9130606A09705DEE99385859166
:1006F000170500001305056E06E4EFF03FE01386D2
:1007000001829775DEE99385E59D17750000130555
:10071000657AEFF0BFDE17C6DEE91306A68F938574
:100720000182177500001305E57AEFF03FDD97C5EC
:10073000DEE99385259617C5DEE91305A58DEFF053
:100740003FD997A5E0E99385E56F17C5DEE9130565
:100750006594EFF0FFD7A26041011733DEE967002F
:10076000032081463706700195451397C6003297DE
:100770002338070093970602233C0700D1832334D4
:100780000702B29723B007002330070223B4070003
:100790008526E39CB6FC01458280411106E4973032
:1007A000DEE9E780A0FAA2600145410182804111A3
:1007B00006E49730DEE9E7806011A260014541015F
:1007C00082805C4111478127636FF70A1707000099
:1007D0001307070D8A07BA979C43011106ECBA97D5
:1007E000828797E7E0E99387E7613301F0003EE411
:1007F0009740DEE9E780203817C7DEE91307078254
:100800001C63850797C6DEE923BAF680D5BF054588
:10081000EFF0FFF99707E1E99387C75E3301F00036
:100820003EE49740DEE9E7804017F9B70945EFF06D
:100830001FF89727E1E99387E75C3301F0003EE476
:100840009740DEE9E780208545BF0D45EFF03FF694
:100850009747E1E99387075B3301F0003EE4973067
:10086000DEE9E780807B49BF1145EFF05FF49767D1
:10087000E1E9938727593301F0003EE49730DEE940
:10088000E780E07195BF17B7DEE9130727791C638E
:10089000850797B6DEE923B3F678D5BF46FFFFFF9D
:1008A00072FFFFFF90FFFFFFAEFFFFFFCCFFFFFFD8
:1008B000011106ECF32740F1EF004045EFF03FE275
:1008C000EFF0BFE0EFF0FFE9EFF03FED0145EFF0B3
:1008D0001FEE01459730DEE9E780A0FE0145972035
:1008E000DEE9E780201C9720DEE9E780C01D972025
:1008F000DEE9E780802601473706000C9306B00B3F
:1009000093170702F983B29723A207000527E3197B
:10091000D7FE0147B705000C1D46A54693170702F1
:10092000819393870720B207AE9790C30527E317FB
:10093000D7FE01473706000C8965994693170702D1
:10094000F983B297AE9723A0070023A0070823A03E
:10095000071023A0071823A0072023A0072823A0FF
:10096000073023A0073823A007400527E318D7FC4A
:10097000F32640F11767DEE9130747018E06BA96A2
:100980009C62BD4593870720B207B297DC433706C8
:10099000000C81273EC4A2478127EDEBB7473412F4
:1009A000938717321707DEE7232EF7609707DEE7F6
:1009B00023AC076037466587B75534128146170761
:1009C000DEE71307276085470948B70E0002854810
:1009D0000D431306163293858567173FDEE7130F25
:1009E0006F62914F9742DEE79382C2619723DEE701
:1009F000938343619710DEE79380C060154E638E4A
:100A0000060D6388660E6384160D7A876389670016
:100A100016876386F7011E8763830701068713071E
:100A200007FC8546E39DC7FDB75755559387575536
:100A300001468145130500021707DEE72324F75816
:100A40009730DEE9E780E0E00146814513051002BA
:100A50009730DEE9E780E0DF01468145130520029B
:100A60009730DEE9E780E0DE01468145130530027C
:100A70009730DEE9E780E0DD9730DEE9E78000E3EC
:100A80001705DEE713050554EFF0BFD3A246812614
:100A9000F32740F18E07BA979C6393870720B2072C
:100AA000B297D4C32EC6B247812791EFF32740F106
:100AB0008E07BA979C6393870720B207B297DC43EF
:100AC00081273EC4C9BDB247FD373EC6E9BF0843D2
:100AD0000125E319B5F48946B1B79B86070054C3D5
:100AE00093962700F69623A016010F00F00F8D466F
:100AF00015BF08430125E317C5F2852793F7F70FC4
:100B000081460DB700000000130500007310453446
:100B1000730050106FF05FFF6FF01FFF6FF0DFFE8C
:100B20006FF09FFE6FF05FFE797106F422F026EC05
:100B3000F32740F19764DEE9938444E58E07A69796
:100B40009C633704000C93870720B207A297DC430D
:100B500081273EC6B2478127ADCB3247938701A19B
:100B6000021775833E971C63829732470127F3274C
:100B700040F18E07BE949C6093870720B207A2972E
:100B8000D8C385476313F50432470127F32740F1A3
:100B9000914663ECF602170600001306660B8A07FF
:100BA000B29794439B5757008217B2967D8BF98377
:100BB0008286B726000CB697904385463B97E600A1
:100BC0001347F7FF718F012798C3A2700274E26484
:100BD00045618280B726000CB69703A607088546B4
:100BE0003B97E6001347F7FF718F012723A0E70823
:100BF000E9BFB726000CB69703A6071885463B97B2
:100C0000E6001347F7FF718F012723A0E71875BF90
:100C1000B726000CB69703A6072885463B97E60043
:100C20001347F7FF718F012723A0E72879BFB72665
:100C3000000CB69703A6073885463B97E600134796
:100C4000F7FF718F012723A0E73841B766FFFFFF49
:100C500088FFFFFFA6FFFFFFC4FFFFFFE2FFFFFFCC
:100C6000F32740F113973700938781FEBA974135F8
:100C70009C631375F50F0E053E9503330500028343
:100C80004111F32720343EE4A26763D20702A26732
:100C900005570583F98F81CFA267130710F80583E5
:100CA000F98F91E7226541011375F50F55BFA267D2
:100CB00063DA0700A2672D47860785836394E70000
:100CC00041019DB5A26763DD0700A2670D47860756
:100CD00085836397E70041011723DEE967002363FB
:100CE00022678147635D070022679D4606070583EB
:100CF0006317D70041011723DEE967000358056732
:100D00008527E39FE7FEA2678127DDBFB7070102C2
:100D10002D472384E700B727002023AA07161307CF
:100D2000F00FB717010223B0E78023B4E78023B8A0
:100D3000E78023BCE78023B0E78223B8E78223BCA7
:100D4000E78223B0E78423B4E78423B8E78423BC95
:100D5000E78423B0E78623B4E78623B8E78617073E
:100D600000001307A7060333070093060010B70718
:100D7000000AB7180102170800001308A804370575
:100D80000200B705080A23B4D8820F00F00F03371A
:100D900008003E8618E2050713060604E31C67FEFA
:100DA000AA9786060F00F00FE39FB7FCB717010262
:100DB0001307F00F23B4E7820F00F00F82800000CA
:100DC000000001C0BEEEFFC0000801C0BEEEFFC0C3
:100DD00097C7000093870701986309EB17B70200D4
:100DE000130747E397C6000023BEE6FE9863B307E8
:100DF000A70097C6000023B7F6FE3A85828041110E
:100E0000F32700C0021501913E952AE4F32700C0A4
:100E10002267E3EDE7FE4101828039719777000098
:100E20009387C70622F880634EEC52E89167370A31
:100E30001000856926F44AF056E45AE006FC2A8B35
:100E4000294981443E94854A7D3A938989BB232070
:100E50005403232E441F232A641F232C041E2328FB
:100E6000541F2328041E4E85EFF07FF91C587D394E
:100E7000812793B71700DD8CE31B09FCE2704274F5
:100E800026850279A274E269426AA26A026B216134
:100E9000828097770000938767FF98639167854604
:100EA000BA9723A4074023A2074023AAB7404111C1
:100EB000631AD61E23ACC74023AA074A23AC074AAD
:100EC0009167BA97D14623A0D742FD5623AED74AA1
:100ED00023A0D74C23A2D74C23A4D74C23A6D74C6E
:100EE00093761500B9C683A6C74B7D763D0681264D
:100EF00093F606F023AED74A83A6074C8126F18EDF
:100F000023A0D74C83A6474C41761306F60F8126C3
:100F1000F18E23A2D74C83A6874C3716F0FF7D169F
:100F20008126F18E23A4D74C83A6C74C812623A605
:100F3000D74C93772500A1CF9167BA9783A6C74B6B
:100F400041761306F60F8126F18E23AED74A83A68B
:100F5000074C3716F0FF7D168126F18E23A0D74C63
:100F600083A6474C370601FF7D168126F18E23A20A
:100F7000D74C83A6874C370610F07D168126F18E5C
:100F800023A4D74C83A6C74C812623A6D74C93779E
:100F90004500B9C79167BA9783A6C74B370601FFCB
:100FA0007D168126F18E23AED74A83A6074C3706DD
:100FB00010F07D168126F18E23A0D74C83A6474CD6
:100FC000A216A19223A2D74C83A6874C9216919287
:100FD00023A4D74C83A6C74C8126C19A23A6D74CFD
:100FE00093778500A1C79167BA9783A6C74B7D7693
:100FF0003D06A216A19223AED74A83A6074C9216AD
:10100000919223A0D74C83A6474C8126C19A23A254
:10101000D74C83A6874C812693F606F023A4D74CA1
:1010200083A6C74C8126F18E23A6D74C418931C5B2
:101030009167BA9783A6C74B7D761306F60F812674
:1010400023AED74A83A6074C8126C19A23A0D74C4A
:1010500083A6474C812693F6F6F023A2D74C83A6AD
:10106000874C8126F18E23A4D74C83A6C74C4576A6
:101070007D168126F18E23A6D74C91673E972320BB
:1010800007402322074085472322F74002E4B706A2
:10109000000183278742858B89CB03254742058939
:1010A0004101828023AC074001BDA26785073EE471
:1010B000A267E3E0D7FE0945E5B793F7260091E381
:1010C000C9BB13F5F60F8280B767002005ED1757EF
:1010D000000013072752186323B0E7D0175700000A
:1010E0001307C751186323B4E7E01757000013072D
:1010F0006751186323B8E7E0B7670020054723AEC0
:10110000E7D082801757000013074750186323B0B9
:10111000E7D02167930607FB23B4D7E0130707FA4C
:10112000D1BF01CD97C70000938747CD984385472E
:10113000630EF70089476301F702894717C700006C
:10114000232EF7CA97C7000023A607CC97C7000035
:10115000938747CC88438280517197C7000093875B
:1011600027CAA2F1804386F5A6EDCAE9CEE5D2E111
:1011700056FD5AF95EF562F166ED6AE96EE5930790
:10118000900363E9872E175600001306A6349316C2
:101190002400B2969C42B2978287F32700C017C7FB
:1011A00000002331F7C8B7E7CF079387F70217C7C7
:1011B00000002327F7C6B70705009387274217C704
:1011C00000002321F7C4894717C700002326F7C46E
:1011D000130600089547814517A502001305054F22
:1011E00017C70000A304F7C297C7000023A607C0D3
:1011F00097C7000023AA07C097002216E780602344
:101200004146814517A502001305454B970022165C
:10121000E780202297C7000023AC07BE914717C77D
:101220000000232FF7BC97C7000023A587BEAE7030
:101230000E7497C700009387E7BD8843EE644E693C
:10124000AE690E6AEA7A4A7BAA7B0A7CEA6C4A6D2E
:10125000AA6D6D61828097770000938727C38463AE
:10126000116405492694232024038569138589BBCD
:10127000232E2401EFF0BFB837551200130505F8EF
:10128000232A2401EFF0BFB797C70000938747B820
:101290009C43130600088145852717A50200130506
:1012A000E54217C700002325F7B617A70200232B36
:1012B000F74097C7000023A107B497C7000023A5F4
:1012C00007B497002216E780C016C167BE949777CF
:1012D0000000938727BB9C6323A80404232C0402EB
:1012E000CE9723A80780914717C70000232AF7B09D
:1012F00051A29547D5BF97C700009387A7B08043F9
:1013000097770000938707B88463D567938747A2D0
:10131000DCC013054006EFF09FAE23A284181374BF
:10132000F4C01364040523A2841823A60438994743
:1013300065BF977700009387E7B49C63054723A0B8
:10134000E73023A0E73823A0E7409D4771BF977798
:101350000000938727B39C631147854623A4E75871
:10136000514723A4E7782967D8C723A8E72823A8EB
:10137000D766094723A6E74623A6077223A2E738C4
:1013800023A4E7380D4723A6E738194723A8E738F1
:1013900017C70000130747A8184323A6D74423A85C
:1013A000074423ACE7680567930607F023A2D742FA
:1013B0009306F7FF23A4D742130667FE23A6C7426E
:1013C00023A8074223AA074223AC074223AE0742C1
:1013D0001306F00723A0C74423A6077A23A8077A99
:1013E0009305001223AAB77A23AC077A23AE077AB3
:1013F00023A0077C23A2077C23A4077C23A6D77CF9
:101400001307F7ED23A8D77C23AAE77C1307F07F07
:1014100023ACE77C23AEE77C23A0E77E23A2E77E14
:1014200023A4C77EA147C9B5B707023E054798C3A5
:10143000A5475DBDEF205037A9477DB50145EF2099
:101440006058C167FD1717C700002329F79CB147F3
:1014500061BDEF200062AD47E30805E897C70000D3
:101460009387C79B9C431B84F7FF17C70000232764
:10147000879A19C0014445BB930790034DB30145BA
:10148000EFF09FC4B727002083A6470837068000E7
:101490008126D18E23A2D70803A78708B70680FF2D
:1014A000FD160127518F23A4E70803A7870801270A
:1014B000758F23A4E708B54705BD9777000093878C
:1014C000E79C98638967F546BA9723A0074023A253
:1014D000D74023A40740114E23A6C741A94EB166A9
:1014E00023A8D7419386A62C23AAD740B7F64091CC
:1014F00023AC07409386D63823AED740B7569575B0
:101500009386461323A0D742B7A6B6719386169644
:1015100023A2D742B7260C4423A40742938606048D
:1015200023A6D742B7264802938616C623A8D742D9
:101530008D6523AA074293060014B307B70023A0C2
:10154000D7809306000A23A2D78023A4078023A66E
:101550000780994823A8178123AA078023AC078016
:10156000854623AE078023A0D78223A2D78259467F
:1015700023A4C78223A6C782116623A80782B307C4
:10158000C70023A007C023A207C023A407C023A627
:1015900007C023A807C023AA07C023AC07C023AEF7
:1015A000D7C023A007C223A207C223A407C223A631
:1015B00007C223A807C223AA07C223AC07C223AECF
:1015C00007C223A007C423A207C423A4D7C423A609
:1015D00007C423A807C423AA07C423AC07C423AEA7
:1015E00007C423A007C6154323A267C623A417C7B1
:1015F00023A6D7C623A8D7C65D4523AAA7C623AC72
:10160000C7C70D4823AE07C723A007C923A207C930
:1016100023A407C923A607C91305600323A817C974
:1016200023AAA7C823ACA7C823AEA7C8372588819B
:1016300023A207CC1305158823A0A7CE2565130F79
:10164000858123A2E7CF379F2AA9130F9F2A23A4BE
:10165000E7CF138F25A923A6E7CF373F8CC2130FFF
:101660002F8C23A8E7CF130F85C223AAE7CF37AF6C
:101670002EEA130FAF2E23ACE7CF138F25EA23AE4C
:10168000E7CF374F9003130F3F9023A0E7D1130FFD
:10169000950323A2E7D137BF322B130FBF3223A408
:1016A000E7D1138F352B23A6E7D1375F9444130F6F
:1016B0004F9423A8E7D11305954423AAA7D037C593
:1016C000366C1305C53623ACA7D09385356C23AE95
:1016D000B7D0B76598859385559823A0B7D2A965EB
:1016E0001385958523A2A7D237D53AAD1305D53AF0
:1016F00023A4A7D2130536AD23A6A7D237759CC65F
:101700001305659C23A8A7D2138595C623AAA7D243
:1017100037E53EEE1305E53E23ACA7D2130536EEC2
:1017200023AEA7D23785A007130575A023A0A7D4A1
:101730001385A50723A2A7D437F5422F1305F54239
:1017400023A4A7D41305462F23A6A7D43795A448CE
:10175000130585A423A8A7D49385A54823AAB7D4A5
:10176000B70547709385054723ACB7D41306467079
:1017700023AEC7D423A007D61306800423A2C7D65E
:101780001306C00223A4C7D6130F000223A6E7D76F
:1017900023A8C7D7414523AAA7D623AC07D894C30B
:1017A00023A4070023A6070023A8070023AA0700F5
:1017B00023AC070023AE070023A0070223A20702E1
:1017C00023A4070223A6070223AA070223AC0702C9
:1017D000B4C313062002F0C3BD45ACC72146F0C711
:1017E000C54F23A8F705930F300323AAF70523ACB1
:1017F000E705130F001323AEE705B0D3E8D3B0D746
:1018000023A8070623AA17077D4F23ACE70723A0C9
:10181000670823A4B70823A6B70823A8B70823AAF4
:10182000E70923ACB70823AE070823A0D70A23A2F1
:10183000D70A9D4523A4B70AB14F23A6F70B23A8C7
:10184000070A23AA170B23AC070A094F23A2E70DA7
:10185000856523A4070C938545C323A6B70CB775EC
:1018600002009385051023A8B70C23AAD70D23AC3B
:10187000A70C23AE070D23A0070E23A2070E23A457
:10188000070E23A6070E23A8070E23AA070E23ACD4
:10189000070E23AE070E23A0071223A2071223A4CC
:1018A000071223A6071223A8071223AA071223ACA4
:1018B000071223AE071223A0071623A2071623A49C
:1018C000071623A6071623AC071623AE071623A078
:1018D000D71823A2071823A4F71923A667181305FE
:1018E000002023A8A71823AA671823AC071823AE43
:1018F000671823A0071A23A2071A23A4071A23A6EE
:10190000071A23A8071A23AA071A23AC071A23AE1B
:10191000D71A23A0B71C23A2071C9305004023A4B9
:10192000B71C23A6071C23A8D71C23AA071C23AE79
:10193000071C23A0071E23A2071E23A4071E23A6FD
:10194000071E23A8071E23AA071E23AC071E23AECB
:10195000071E23A007209305006423A2B72023A419
:10196000072023A6072023A807209305800223AA87
:10197000B72023ACC72023AED72123A0072223A260
:10198000C722394523A4A72223A6072223A8D722AA
:1019900023AA072223AE072223A2072423A4072475
:1019A00023A6072423AC072423AE072423A0D7268D
:1019B00023A2072623A4072623A6072623A8072653
:1019C00023AA072623ACE72723AEC727614323A01A
:1019D000672823A2072823A4072823A6072823A0D3
:1019E000072A23A2072A23A4072A23A6072A23A813
:1019F000072A23AA072A23AE072A23A0072C23A2FB
:101A0000072C23A4072C23A6072C23A8072C23AAE2
:101A1000072C23AC072C23AE072C23A0072E23A2D0
:101A2000072E23A4072E23A6072E9305003223A8F2
:101A3000B72EC94523AAB72E23AC072E23AE072EF7
:101A400023A0073023A2073023A4073023A60730A2
:101A500023A8073023AAC7302D4623ACC73023AEB6
:101A6000073023A0073223A2073223A4073223A67C
:101A7000073223A8073223A2D73823AE073E956743
:101A8000BA9723A007C023A207C023A407C023A698
:101A900007C023A807C023AA07C023AC07C023AEF2
:101AA00007C094C3D4C323A40700D4C71306F00F00
:101AB00090CB23AC070023AE070023A0070223A08E
:101AC000074023A2D7409967BA9723A0078023A095
:101AD000078423A2078423A4078423AE078423A0BA
:101AE00007C023A0074023A2074023A4074023A642
:101AF000074023A8074023AA074023AC074023A898
:101B0000074223AA074223AC074223AE074223A081
:101B1000074423A2074423A4074423A6074423A879
:101B2000074423AA074423A60752216623A8075483
:101B3000B307C70023A007C023A207C023A607003E
:101B400023A80700C167BA97D5458CC323A2170104
:101B500023A40701D4C723A8070023AA070023AEA4
:101B6000070023A0070223A8070223AE070223A031
:101B7000070423A20704B4CBCD67BA9723AC07C0F0
:101B800023AE07C023A007C2B705008023A207C267
:101B900093C5F5FF23ACB7F023AE07F023A0B7F24F
:101BA00023A207F223AC072023AE072023A007229D
:101BB00023A2072223AA075023AC075023A80768B3
:101BC000B7C70300BA97050690C394C3D4C394C79C
:101BD00023A6070023AA070023AE07001307F0037C
:101BE00098D3D8D323A4070223A6070223A8070269
:101BF00023AA670223AC0702D4DF23A0070423A291
:101C0000070497B7000023ADA71EADB0976700008B
:101C1000938747279C630567BA97094723ACE780FA
:101C200097670000938787269C631167BA970547DB
:101C300098CB23A0070098C3BD476FF0EFEA9767E2
:101C40000000938727249C6305679146BA9723A2D7
:101C5000D78A094723ACE7861307C00723A2E78A80
:101C60001306800723A2C78A23A2C78A23A2E78A72
:101C700023A2D78A1306400623A2C78A1307600649
:101C800023A2E78A9305700623A2B78A23A2E78AD4
:101C900023A2B78A23A2E78A23A2C78A23A2D78ACC
:101CA0007D4723AEE7887D5723A8E78823A80788C8
:101CB00023AE078823A8E78823A807881306F00324
:101CC00023A0C78A23A0078A994523A6B78C23A6F9
:101CD000E788BD4523A8B78823A6078823A80788D7
:101CE00023A6D78C23A6E78823A8B78823A607882E
:101CF00023A8078823A6078C23A0C78A23A0078AC6
:101D000023AC0786C1476FF02FDE97B7000093879B
:101D100027119843976700009387C7169C638566D1
:101D2000B69723A8E78CC167FD1717B700002327D4
:101D3000F70EC5476FF04FDB97B7000023AC070ADB
:101D400097670000938787168C63976700009387D7
:101D50006713886311668567130F068082F082F42B
:101D600082F882FC014381480D478146856E0D064D
:101D70003E95A14F130E00329B97B600BB87D7014B
:101D80001B98860013780870B3F7E701B3E70701E3
:101D9000812733E8C70023A0050393E737009CD1D0
:101DA00023A005038327C58A1347F7FF9BD7C700E6
:101DB0008D8B7D8F19CB13F776000A0700012297D0
:101DC000032807FE0528232007FF13080106814288
:101DD00001478323080063F57200BA889E82054399
:101DE00005271108E317F7FF85261B870700E395F2
:101DF000C6F96306030097B7000023AD17FFC94774
:101E00006FF08FCE97B700009387C7FE9843916617
:101E1000138606809B0757001D279B9787001B177B
:101E2000B700718F93F70770D98F176700001307FA
:101E3000E707033907008127138736005D8F2320CA
:101E4000E90293E737002320F902976700009387A0
:101E5000670380632320E902056A832944308324D1
:101E60004418229A9B8709003EE09BD7C4003EC4D9
:101E70008547232CFA86130C0008930C100893074F
:101E80000008BB8787412322F464371BFCFF23260D
:101E9000F4649307FBFFE68D854B014D954A3EE8C0
:101EA000930710086394FD00930D0008B70C023EE1
:101EB00023A00C001305C012EFE07FF403274418A1
:101EC000C2671305C01201277D8F9B97CA005D8FE3
:101ED000B70704005D8F01272322E418EFE03FF2EB
:101EE000854723A0FC001305C012EFE05FF1514BC2
:101EF000930C00088149B704180023240A8823287A
:101F00000A8823289A8823280A8823249A88232841
:101F10000A8823289A8823280A881305C012EFE02C
:101F20001FEEBD450147014823200A8823209A88D7
:101F300023200A881305C01242F42EF03AECEFE099
:101F40001FEC8327CA8A227862679BD787008D8B14
:101F50008275630408023B050741A14663F5A61894
:101F6000C28763733801CE879B890700C28763F3FA
:101F70000C01E6879B8C070029A813C8F5FF33786E
:101F8000F800631C0816BE850527E36F87F9E3197F
:101F900008FC7D3BE3130BF62547BB879941636340
:101FA0009701814B1547636FF71463FA9D15BB8743
:101FB000BC4115476367F7001B1D1D00136D1D0015
:101FC000012D93773D000D476381E714852AF9477A
:101FD0009B8D0C00E396FAEC930A000863970B00C4
:101FE0006D3C93072006E31CFCE8B707023E23A0E4
:101FF00007001305C012EFE09FE0B717FCFF13873F
:10200000F7FF83274418930600088127F98F639010
:10201000DA1037070500D98F2322F4181305C012F0
:10202000EFE0FFDD370A023E854A379504001305CD
:10203000053E23205A01EFE09FDC83270902832617
:1020400009021167130607808126F18E93F7077046
:10205000D58F7D075D8F2320E90293E7F7012320C9
:10206000F9022320E9021305C012EFE05FD913053E
:10207000C01223200A00EFE09FD82247832744188C
:102080001305C0129B14C70037F70300F98C3717EC
:10209000FCFF7D178127F98FDD8CB7070400DD8CED
:1020A00023229418EFE0BFD51305C01223205A0154
:1020B000EFE0FFD482672322F430CD4717B700004A
:1020C0002320F7D497B70000938747D59C431B8400
:1020D000F7FF17B70000232387D49307400363005B
:1020E00004946FF02FB99146E310D5EA13C5F5FFBC
:1020F0007D8DE31B05E8014879B53A8871B5BB874A
:102100009D4145BD1B1D1D006DBDEE8CC1BD9B9A43
:10211000CA00B3E7570137070400D98F8127EDBD07
:1021200097670000938707D6986385678946BA97B3
:1021300023A6D7802320076A23AC07809767000077
:102140009387C7D49C63416785463386E70023287D
:10215000060434CA1166B29723AC07027D1794DFD8
:1021600097B7000023ACE7CAD1476FF0EF979767A6
:1021700000009387A7D103BA0700C167D29783AB4A
:10218000470393F71B003EE063810778116B97B715
:1021900000009387E7C7B3046A019C43054985693A
:1021A00023A02403138589BB23AE24013EE4EFE082
:1021B0001FC53755020023AA240123A024011305BB
:1021C000059FEFE0DFC33755120023AA0400130573
:1021D00005F8EFE0DFC2596523AE0400130505F9E9
:1021E000EFE0FFC123A02403138589BB23A2041CB5
:1021F000EFE0FFC0138589BBEFE07FC09767000069
:102200009387C7CA83B907001D651305055383ADBE
:10221000090103AD090183AC490103AC490123AEB7
:102220002401EFE0DFBD130B0BF0B707003F812D5A
:10223000012DB3FD6D01337DFD00812C012C337C1C
:10224000FC0033EDAD01B3FC6C011B171D0033EB3B
:102250008C0123A8E9009B171B0023AAF9009767AC
:102260000000938727C284633707000283A74408CE
:102270008127F98F23A2F408F5DB9D6C13850C539D
:10228000EFE0FFB783A74408856D2547812793F7C3
:1022900037FC23A2F40883A7440813850C53116963
:1022A000812793E7C70323A2F408B387B40123ACC3
:1022B000E7861307F00323A0E78A23A0078A2147B4
:1022C00023ACE786EFE0BFB3529937950400054C85
:1022D0001305053E232E0900EFE07FB2232089037A
:1022E00013858DBB232E8901EFE07FB137550200A6
:1022F000232A89011305059F23208901EFE03FB0C0
:1023000037551200130505F8232A0900EFE03FAF07
:102310005965130505F9232E0900EFE05FAE054569
:10232000EFE0BFAF0945EFE05FAF0D45EFE0FFAE77
:102330001145EFE09FAE2D45EFE03FAE4145EFE0A8
:10234000DFAD4545EFE07FAD5945EFE01FAD3545C9
:10235000EFE0BFAC13850C53232E8901EFE03FAAB9
:1023600023A8A90123AA69013707000283A744080B
:102370008127F98F23A2F408F5DB1D6B13050B539E
:10238000EFE0FFA783A7440805692699812793F703
:1023900037FC23A2F40883A7440813050B53130D3D
:1023A0000008812793E7C70323A2F408A547232C3D
:1023B000F9869307F0032320F98A2320098AA1478D
:1023C000232CF986EFE0BFA39167D2970547379595
:1023D0000400D8CF1305053EEFE07FA2930710025B
:1023E000232CF9862326098C930D100893070008E7
:1023F000BB87A74123A2F46423A6F4648267371C39
:10240000FCFFEE8A3EE89307FCFF814C154B3EEC47
:10241000930710086394FA00930A0008B70D023E70
:1024200023A00D001305C012EFE07F9D83A7441881
:10243000E2661B17CB008127F58F5D8FB70704007D
:102440005D8F012723A2E4181305C012EFE03F9B24
:10245000854723A0FD001305C012EFE05F9AA28B11
:10246000930D0008014C370E1800232409882328F7
:1024700009882328C989232809882324C98923286E
:1024800009882328C989232809881305C01272F0F6
:10249000EFE0FF96027EBD4E01438147232009886D
:1024A0002320C989232009881305C0123EFC76F831
:1024B0001AF472F0EFE0BF940326C98AE277027E35
:1024C0001B5686000D8A2273C27E9DC33B05F340D6
:1024D0002147637EA7443E8663F3870162861B0C17
:1024E00006003E8663F3FD006E869B0D060019A86C
:1024F00093C7FEFFF18F63960744B28E0523E36F07
:10250000A3F9F1FBFD3BE3920BF62546BB07BC416B
:102510006363B60102E81546636AF64263F5BA439F
:10252000BB875D4115466368F6009B961C0093E6E9
:1025300016009B8C060093F73C000D46638BC7404A
:10254000052BF9479B8A0D00E314FBEC130B0008E5
:10255000C26791E76D3D93072006E319FDE8B707D1
:10256000023E23A007001305C012EFE05F89B717F2
:10257000FCFF1387F7FF83A7441893060008812701
:10258000F98F631ADB3C37070500D98F23A2F418B3
:102590001305C012EFE0BF86B707023E0547379527
:1025A000040098C31305053EEFE07F8503A90902E7
:1025B00003A709029167A266012793870780F98F15
:1025C00019473BF7E6021379097021E3976600008B
:1025D00083C6468E0D476376D70017670000230B2E
:1025E000078C176700000347E78C05279746000014
:1025F0009386C6FCBA9683C6460117660000230B75
:10260000E68A17B70000A303D780A2660D47B36719
:10261000F9003BF7E602916B056D3EE093873B00C6
:10262000A14D269D3EE8954A3AE49B871D0023A6CE
:10263000F46423A2B46593073002232CFD8682E064
:1026400082E482E882EC82F082F482F882FC814BA0
:10265000014C3709180023240D8823280D880267B0
:1026600023282D899B172C0023280D88F18B2324E8
:102670002D89D98F426723280D8823282D89232867
:102680000D885D8F23A0E90293E7370023A0F902AC
:1026900023A0E90213054006EFE06FF6814C0144E8
:1026A000014B3D4E954823200D8823202D8913058D
:1026B000C01223200D8846F072ECEFE04FF40327A0
:1026C000CD8A0325CD8A626E1B5787000D8B3D890D
:1026D0008278914E214F630C0B28E3060438BB87A8
:1026E0006C4181466376FF00BB868C40B336DF00C9
:1026F000BB878C406391D729630315010144A287EE
:102700003684E3150B36134BFEFF337BEB00631669
:102710000B263A8E0588852C09E413B70C0863153F
:10272000072463EE6B25630C0B0091CB1D47636898
:10273000870113172C00140136972320F7FE050C90
:10274000C147E31AFCF081471305000298103E9739
:1027500014431307F00F63E4DB003B87DB40940076
:10276000BE9698C29107E393A7FE98000148A14E38
:10277000A1469307F00F1305F00F130EF00F214F32
:10278000832807001B0318009B0F030063F3C80393
:10279000937E7300140193972E00B69703A507FC50
:1027A0009B0728009D8B8A07B69783A707FCC286E4
:1027B000468E11077E88E395EFFD1308F00F05475D
:1027C00063040E0113B72B0121480127639506010D
:1027D000136747000127226605486314061B9B8781
:1027E000F6FF93F677007285631B071A97A7000020
:1027F00083C7D761B59F82669B972700F18BD58FE2
:1028000091668D06DD8E23A0D90293E7370023A0C1
:10281000F902856723A0D902A69723A4078823A8D5
:102820000788B706180023A8D78823A8078823A4F9
:10283000D78823A8078823A8D78823A807886318E0
:10284000A7148567A69723A4078823AC0786856706
:10285000BE94A14723ACF48623A6048C254723AC61
:10286000E4861307F00323A0E48A23A0048A23ACA0
:10287000F4861305C012EFE08FD811645294379597
:1028800004001305053E232E0400EFE04FD7054555
:10289000EFE0AFD80945EFE04FD80D45EFE0EFD7B7
:1028A0001145EFE08FD72D45EFE02FD74145EFE001
:1028B000CFD64545EFE06FD65945EFE00FD6354509
:1028C000EFE0AFD52945EFE08FD385472328F42AE1
:1028D0002328040082D09304E00F1C58812789E745
:1028E0008657812763F8F40C91673E9AD54717A75E
:1028F00000002327F750C16723280A2AFD17232247
:102900000A1C17A70000232BF75097A700009387F6
:10291000E7509C431B84F7FF17A700002320875034
:102920009307800319E06FE09F8F6FE0BFB41147FA
:10293000E316E5BC13C5FEFF718DE31105BC8147AD
:102940006DBE9A8765BEBB87BA41E9BE9B9C1C00E1
:10295000DDB6D68DF5BE1B1BCB00B3E7670137078D
:102960000400D98F81271DB1AA883E842DBBE304C2
:10297000040E8146B5BB468559B3668B61BBDA8BC5
:102980006DB32266E31206E6F6863E85B1BD23A04E
:10299000078823A0D78823A0078805274DB5058B76
:1029A000E30507C89307E00FE3E3B7EB952DBB8D75
:1029B0007D01A5B92945EFE08FC486578527BED094
:1029C00029BF975700009387E74B9C630567BA9729
:1029D00083A74781858B81CFC167FD1717A70000AB
:1029E000232EF742D94717A70000232BF74097A7BC
:1029F00000009387A7429C431B84F7FF17A70000A2
:102A0000232E87409307300319E06FE05F816FE06A
:102A10007FA6DD4717A700002324F73EB707100065
:102A2000F91717A70000232BF73E6FE0BFA49757B5
:102A30000000938727459C630567BA9783A7478162
:102A4000918B89CFB7071000FD1717A70000232728
:102A5000F73CE14717A700002324F73A97A70000A7
:102A60009387C73B9C431B84F7FF17A700002327CE
:102A7000873A9307100319E06FE06FFA6FE09F9FAA
:102A8000975700009387074017A700001307873761
:102A90009C63184323A2E7180D4723A6E738056770
:102AA000BA9783A74781A18B81CFC167FD1717A76D
:102AB00000002325F736E54717A700002322F73447
:102AC00097A70000938787359C431B84F7FF17A7C0
:102AD0000000232587349307000319E06FE02FF4EB
:102AE0006FE05F99975700009387C7399C6305672C
:102AF000BA9783A74781C18B81CFC167FD1717A7FD
:102B00000000232DF730E94717A70000232AF72EEE
:102B100097A70000938787309C431B84F7FF17A774
:102B20000000232D872E9307F00219E06FE02FEFAE
:102B30006FE05F9497570000938747359C63416728
:102B4000BA9783AA870393FA1A0063870A1001448D
:102B5000014B975900009389E932056AA14C914BCA
:102B6000054C094D2945EFE08FA903B90900294516
:102B7000B304490123A46481EFE06FA883A74486CE
:102B800083A7448683A7448683A7448683A7848635
:102B900083A7848683A7848683A7848683A7C4812A
:102BA000294581275D8CEFE08FA583A7448381278A
:102BB00063859701136414000124B307490183A7B7
:102BC0000785812763E4FB0013641400B307490100
:102BD00003A7078283A6478281470D8B93F6F60FE2
:102BE00089E6D68719E313641400B306490183A666
:102BF00046829BD6860093F6F60F91E685276314EE
:102C0000870113641400B306490183A646829BD64C
:102C1000060193F6F60F91E685276314A701136466
:102C200014005299832649829BD6860199E68D46E7
:102C300085276314D700136414006374FC001364C5
:102C40001400052BE3107BF3ED4719E06FE02FDD57
:102C50009307E0026FE04FE99307D0026FE0CFE8FF
:102C600097570000938707229863D567938747A2F9
:102C70005CC3F1476FE04FE79757000093878720C9
:102C800083B9070017A9000013090918856783266F
:102C90000900CE97214723ACE7866398061A31478F
:102CA00023A8E9761D430147930810021308F00F8B
:102CB00021469305000223AE078623A6678C23AC2A
:102CC00017873B15E80023A6A78823A6078823A615
:102CD000078823ACC7862127E31FB7FC456A856AAE
:102CE000179702002324079E23ACC786814C1B0A3A
:102CF0001A11CE9A854B179C0200130C2C9D3D4B4C
:102D0000BB874C03054D23AEFA8A9B0DFDFFBB9D8F
:102D1000BB0193F4FD0F014681452685EFE0EFB935
:102D20009B06050063950614014689452685EFE05C
:102D30004F969B0605002A84014681452685EFE0D3
:102D4000CFB7498C1374F40FA286014685452685BA
:102D5000EFE0AFB6498C1374F40FA28601468945A3
:102D60002685EFE08FB5498C1374F40FA2860146D7
:102D70008D452685EFE06FB4498C1374F40FA2865D
:102D8000014691452685EFE04FB3498C1374F40F4B
:102D9000A286014695452685EFE02FB2498C137433
:102DA000F40FA28601469D452685EFE00FB1498CC0
:102DB0001374F40FA2860146A1452685EFE0EFAF1C
:102DC000498C1374F40F9B06040055E083270C0014
:102DD00033F7B701012701EF13172D006297232066
:102DE0009701B3EDB7019797020023A1B78F83270F
:102DF0000C0093F61700BDCA13F727002DCB13F76D
:102E0000470035C7A18BA5C783278C0003274C003B
:102E10009B974700D98F0327CC001B178700D98FBA
:102E200003270C011B17C700D98F812717970200B2
:102E3000232AF78A0567BA99214723ACE98623AE8E
:102E4000F98A97A7000023A107FC03240900F9478A
:102E500019E06FE0CFBC89476311F40497A7000025
:102E600023A407FA9307A0036FE00FC88546050D5A
:102E70009547E31CFDE8852CE3946CE997A70000D7
:102E800023A4D7F897A70000938707F79C438527CB
:102E900017A700002322F7F64DBF97A7000023A530
:102EA00007F6F5476FE04FC41306000881451795F4
:102EB00002001305A58197E02116E78080579757F8
:102EC00000009387A7FC9C6341678D46BA9798479B
:102ED0001B06170063F6C600930770036FE0CFC0B0
:102EE00090C741BBFD476FE02FC097A700009387B5
:102EF000A7F180439307000219E06FE04FB29DB73E
:102F000097A70000938747F09443014681453D45CC
:102F1000EFE0AF9A014689453D45EFD09FF79B060C
:102F200005002A84014681453D45EFE00F99498C13
:102F30001374F40FA286014685453D45EFE0EF97F7
:102F4000498C1374F40FA286014689453D45EFE094
:102F5000CF96498C1374F40FA28601468D453D45EA
:102F6000EFE0AF95498C1374F40FA28601469145AA
:102F70003D45EFE08F94498C1374F40FA28601460F
:102F800095453D45EFE06F93498C1374F40FA2868D
:102F900001469D453D45EFE04F92498C1374F40F77
:102FA000A2860146A1453D45EFE02F91498C13745F
:102FB000F40FA286054681453D45EFE00F90498C10
:102FC0001374F40FA286054685453D45EFE0EF8E6C
:102FD000498C1374F40FA286054689453D45EFE000
:102FE000CF8D498C1374F40FA28605468D453D455F
:102FF000EFE0AF8C498C1374F40FA286054691451F
:103000003D45EFE08F8B498C1374F40FA286054683
:1030100095453D45EFE06F8A498C1374F40FA28605
:1030200005469D453D45EFE04F89498C1374F40FEB
:10303000A2860546A1453D45EFE02F88418D1375D9
:10304000F50F97A7000023A1A7DC9307100219E151
:103050006FE08FA985476FE02FA90D451306F00398
:10306000B70502007A05EF00204E1B04050097A764
:10307000000023AB87D89307200219E06FE02F9A56
:10308000930750036FE04FA697A700009387C7D719
:1030900080439307300219E06FE06F989307600355
:1030A0006FE08FA405453146B70500047E05EF00AB
:1030B000205397A70000938727D5804393074002AA
:1030C00019E06FE0CF9579B7B70500020545EF002D
:1030D000206097A7000023A9A7D2B70500020545E5
:1030E000EF00005F17A40000130404D21C40B705D2
:1030F00000025D8D97A7000023A8A7D00545EF002B
:10310000205D0040498C012497A7000023AE87CEA4
:103110009307500219E06FE08F9097A7000083C7D4
:10312000E7CE854617A70000130707CF63E1F60631
:10313000852797A60000238BF6CC1C4391461B865F
:103140001700B28763E3C60497A6000023A6F6CC57
:1031500097570000938707D39C6318431D65130599
:10316000055323ACE7680567BA97054723ACE786A4
:103170001307E00323A0E78A23A0078A214723AC93
:10318000E786EFD0DFC76FE0EFAE894775BF97A73F
:103190000000238D07C6894717A60000232EF6C618
:1031A00097A7000023AED7C465B797A70000938701
:1031B000A7C580439307600219E06FE04F8659BDB1
:1031C00097A70000938747C480439307700219E0D4
:1031D0006FE0EF8441B597A700009387E7C2804373
:1031E0009307800219E06FE08F83ADB597A70000C9
:1031F000938787C180439307900219E06FE02F8285
:1032000091BD9307A0026FE02F8E9307B0026FE08D
:10321000AF8DF32700C097A600009386A6C09462E6
:10322000958FB72609009386067CB3D7D702978679
:10323000020023B5F64897A700009387E7BB9C439D
:1032400089E70545EFD05FE801471364170093074E
:10325000C0026FD0DFFC8147638758CB631555CB25
:10326000E6876FF04FCA8147639E5801BB866C4169
:103270006392D6CB9346FEFFF98E639D06C8014B41
:103280006FF02FC9E31455FFE687CDB75971A2F04F
:10329000A6EC62F066EC86F4CAE8CEE4D2E056FC16
:1032A0005AF85EF46AE86EE4A147AA842E8C328450
:1032B000B68C630DF60663EFC704894705456307BF
:1032C000F600914779556303F60001457D5A854B19
:1032D000A6890149894A135A0A02214B973D0000E9
:1032E000938D4D351737000013074735139DFB01AC
:1032F00063178905A6700674E6644669A669066ABE
:10330000E27A427BA27B027CE26C426DA26D0145B7
:1033100065618280C147630EF60093070002E316E1
:10332000F6FA973700009387E73001A8EF20006E88
:1033300071BF9737000093876730886341BF6395FB
:103340005C0323A0A900910933754501630C640552
:10335000636F8B00630A54039147630BF40263139A
:1033600074010505052969B788E0A104C5B793076D
:1033700000026300F40493070004630FF402C147E2
:10338000E312F4FE0863F9BF630AA5030605D9BF7B
:103390009347F5FF05456384A7011395170013456F
:1033A000F5FFC9B7EF20806617370000130707291C
:1033B00055BF03B50D007DB701456DB705455DB738
:1033C0001971A6F4CAF0CEECD2E886FCA2F8D6E4D5
:1033D000DAE05EFC62F866F46AF06EECA1472A89D6
:1033E000AE89B284368A630EF60263E0C70289476B
:1033F0000544630FF60291477954630BF602930775
:1034000040036384F408014425A0C1476309F6061C
:1034100093070002E315F6FE973700009387872194
:103420009DA0EF20A05E2330A9002A842320A900BC
:10343000FD5B370C1000854CCA874A85814A014BD9
:1034400093DB0B02711C973D0000938DAD1E9736E8
:1034500000009386A61E139DFC0163133B05E670D6
:1034600046745685A6740679E669466AA66A066BAE
:10347000E27B427CA27C027DE26D0961828097370B
:1034800000009387A71B806365B7F32700C093876D
:10349000C7123EE4732700C0A267E36DF7FEA5B72D
:1034A0000947631DEA0203E70700337474013AE039
:1034B000026763038700852A214721059107638CF2
:1034C000E404636F970009476389E4021147638A44
:1034D000E402639394010504052B41B71861C1BF51
:1034E00013070002638BE40413070004638AE404F7
:1034F0004147E393E4FE8062C5B76305A405060473
:10350000E1BF1347F4FF05446304A7011314170038
:103510001344F4FFD1B7EF20604F2A84EF20004F0F
:1035200033758501021575814A9500E100C1AA87AE
:10353000973600009386861045B703B40D0069BF27
:10354000014459BF054449BF5D714EF852F456F02D
:103550005AEC5EE862E466E086E4A2E04AFC2A8A6D
:10356000AE8A328C8149014B854C9D4BBB973C0107
:103570001B890700B377FC008127B9C31379F90FC2
:103580008D464A86D6855285EFF05FD01B04050034
:103590008D464A86D6855285EFF09FE2299C894662
:1035A0004A86D6855285EFF07FCE3B046401299C84
:1035B00089464A86D6855285EFF09FE03B0B850011
:1035C0008529E39579FBA66006645A856279C279FC
:1035D000227A827A626BC26B226C826C6161828019
:1035E000397122F805641B0404C0119C8215021471
:1035F000819126F44AF04EEC56E45AE006FC52E87B
:10360000AA840190B389A500194B1739000013094A
:103610006903973A0000938AEAFF338A8400636360
:103620003A053705000397E02116E78040DF37159C
:10363000000397E02116E78080DE3725000397E03E
:103640002116E780C0DD4274E270A2740279E2695B
:10365000426AA26A026B37350003216117E3211623
:103660006700E3DB93F77400FD176367FB008A07CD
:10367000D6979C43D69782873705000397E021169B
:10368000E780E0D9B706000326852286CA8597E041
:103690002116E78020D5D28449B73715000397E07B
:1036A0002116E780C0D7B7160003F9BF37250003FE
:1036B00097E02116E780A0D6B7260003F1B737358B
:1036C000000397E02116E78080D5B73600036DBF71
:1036D0001D714EFCB7090080BB89B900A2E8A6E4C1
:1036E000CAE05AF09544054405698219096B52F8FD
:1036F00056F45EEC62E866E486ECAA8B814A014AE5
:103700008A147E04130C897E93D90902130B0B7162
:10371000978C0200938C8C0363F57A09B70600033B
:10372000130649BFA285179500001305A57397E0FE
:103730002116E78020CB130649BFA685B7160003E4
:1037400017A500001305853197E02116E78080C991
:103750003705000397E02116E78060CC371500039A
:1037600097E02116E780A0CB130649BF97A500007C
:103770009385C52E179500001305C56EEF204025D3
:1037800039E5B307840163FC3703930749BF3E94CF
:10379000BE94052AE3724BF903B70C008947631600
:1037A000F7020145E6604664A6640669E279427A5A
:1037B000A27A027BE26B426CA26C25618280954406
:1037C0000544852A8A147E04E9B7014AB1B7054544
:1037D000D1BF411122E03724002071469385018238
:1037E0001305042006E497E02116E78060C87146BF
:1037F000938501871305442397E02116E78040C78E
:1038000013054425130600039385018497E02116D0
:10381000E78000C6974700009387C7679863B7178C
:103820000800938777902322F71CA2600264B717E1
:1038300004009387D7A02324F71C0145410182800F
:10384000411106E4EFF0FFF8974700009387876483
:103850009863B7170800938777902322F71CA2601C
:10386000B71704009387D7A02324F71C4101828057
:10387000B7270020E8CB82804111F32700C093874F
:10388000C7123EE4732700C0A267E36DF7FE410153
:103890008280011106EC22E826E44AE0EF00200EC7
:1038A000B7A7080037070837938707081CC7B7274B
:1038B0000020054723ACE708B7273F0037770020F3
:1038C000938707F01CC71307F047B787002023AE84
:1038D000E7C0EFF0FFF6856437340020938704F0EB
:1038E000232EF41A938404802A89EFF0FFF8232E04
:1038F000941AEFF07FF8896793870780232EF41AD4
:10390000EFF09FF7916793870780232EF41AEF005B
:103910006034EF00801CE26042644A85A264026960
:103920000561828082800111014522E826E44AE097
:1039300006EC37899303EFD0CFFE1B0405008144CA
:1039400013090970A287058801CCE260426413F56F
:1039500027003335A000A26402690A050561828050
:103960000545EFD00FFC1B040500F32700C0E3EB77
:10397000F4FCEFF03FFBF32400C0CA94E1B7B72793
:103980000020D847C176FD160127758FD8C71307C9
:10399000D007D8C7D847C1660127558FD8C78280BE
:1039A0008547630CF500B707203E95460D6794C721
:1039B000130707C398CBD4C38280B707203E88C3C0
:1039C000828082800546630BC504B707013E0D4720
:1039D00098C3370700019306E703D4C3930600504A
:1039E00094C7B70600029386061094CB930607107F
:1039F000D4CB85669386060294CF23A6070023A224
:103A0000070223A4070293060008D4D7916690DB2F
:103A10008D0694D31307F703D8C38280974700001D
:103A2000938747469C63370700019306F70323A259
:103A3000D7089306005023A4D708B7060002938640
:103A4000061023A8D7081307071023AAE70805675D
:103A50001307070223ACE70815670D0723A0E70A41
:103A60001307000823A6E70AB707013E0D4798C3CE
:103A70008280B707013EC84301251B559541134578
:103A80001500058982800546B707083E6305C50411
:103A90000D4798C3370700019306E703D4C3930685
:103AA000001094C79306071094CBD4CB85669386F9
:103AB000060294CF23A6070023A2070223A407022D
:103AC000D146D4D79D6690DB9386364494D31307B2
:103AD000F703D8C3828088C38280797106F422F00C
:103AE00026EC4AE897E02116E78080800D47B7076B
:103AF000013E98C3B717003E98C3370700019306ED
:103B00006703D4C39306005094C71307071098CBDC
:103B10003707004B13070730D8CB05671307070299
:103B200098CF23A6070023A2070223A407021307A6
:103B30000006D8D7054798DB11670D0798D3B7273C
:103B4000003E1307501598C70D67130707C3B70644
:103B5000203E98CA13078020D8C323AA070023ACAD
:103B6000070023AE070002C41307F018A2478127FD
:103B70006371F706B7070001938677033717003E96
:103B8000FD1754C33EC23719003EB70400023E84FD
:103B9000832749008127E58FA1C7B707054037274D
:103BA00000209507232CF70A0F00F00F02C6832789
:103BB000870B93F70704A1C39307400202741CC745
:103BC000A270E2644269B727003E0D47D8C745613D
:103BD0007DB3A24785273EC4A24785273EC479B757
:103BE0009247812789C79247FD373EC255B722C207
:103BF000EFF03FDD71BFB24785273EC64DBF974707
:103C00000000938727289C630567BA9737F78008D9
:103C10001307F72F23A2E7C03777F037130707778B
:103C200023A6E7C023A8E7C009671307870C23AAC8
:103C3000E7C0375700F01307C70C23ACE7C03707BE
:103C400000FF23A2E7C2370714801307171023A42D
:103C5000E7C08280397122F826F44AF04EEC056400
:103C6000B774D0B71969B779B0B752E806FC56E413
:103C7000938404771309F907130AE4FF93890977FA
:103C8000979700009387871A9843B94763EAE70438
:103C90009797000083E78719173700001307875AA3
:103CA0008A07BA979C43BA978287854A974700004C
:103CB00023A45721974700009387C71C9C631307D1
:103CC0001010A29723A0E7C023A057C1EFF03FF345
:103CD000B707403E23A057019797000023A8571528
:103CE000974700009387471D9C43D9FBE2704274BD
:103CF000A2740279E269426AA26A01452161828066
:103D000097970000938707139C4385271797000018
:103D10002322F712974700009387C7169C63A29748
:103D200083A707C293F70704C5DF9797000023A373
:103D30000710894717970000232AF70E55B7979762
:103D400000009387270F9C4339479B861700B6874F
:103D50006367D70017970000232EF70C51B797978A
:103D6000000023A9070C8D47F1B797470000938700
:103D700067129C633707103E9306F04723A0071095
:103D800085471CC3370750361CC3370751361CC341
:103D9000174700001307070F18632297232ED7C079
:103DA0009306F007232ED7C0174700001307870F8D
:103DB00018631CC3232007009147ADBF974700003D
:103DC0009387470C9C63A29783A707C21397170397
:103DD0009547E34107F629B7974700009387870A7D
:103DE0009863B70600402297832707C28127D58FA3
:103DF0002320F7C2974700009387C70A986391660C
:103E00005C438127D58F5CC399472DB70545EFF0FB
:103E10003FB90545EFF03FC79797000023AC070077
:103E20009D4709BF974700009387C7059C63A297EA
:103E300083A787C093F70708E38407EAA147DDBD9E
:103E400097470000938707049C63A29783A747C105
:103E500013978702A547E34F07EC59B50146814503
:103E60004145EF00C07B014681454145EF00207B85
:103E7000B70611209846130604C00127518F98C633
:103E8000372711201C478127D18F1CC7A9475DB553
:103E900097470000938707FF9C63A29703A747C13A
:103EA00083A687C2012713960602635506020547BB
:103EB0009796000023AEE6F6370700DB23A2E7C2A1
:103EC0003777F0B71307077723A6E7C023A8E7C023
:103ED000AD478DB51B5707011377F707B14663E070
:103EE000E60209479796000023A4E6F4370700DBB3
:103EF00023A2E7C223A637C123A837C1D1BF0D47EC
:103F00009796000023A6E6F2370700FF23A2E7C238
:103F100023A697C023A897C065BF97470000938743
:103F200067F69C631307F007A29723AE27C123AE61
:103F3000E7C0979700009387A7EF98438547631ED4
:103F4000F7049797000023A707EEB147E5B39797CB
:103F50000000938727EE9C431B871700BA87E37BFB
:103F6000EADE9797000023A707ECB547E1B3974730
:103F70000000938727F19C63A29703A787C23707A6
:103F800000FF23A2E7C223A697C023A897C023AEB1
:103F900027C11307F00723AEE7C0B94761BB9747B6
:103FA000000023AB07F02DBB97470000938787EDF8
:103FB0009863411102C683278720C18BADC702C613
:103FC000B946B247812763F4F6069947232EF720B6
:103FD00097470000938787EC9C63854694C323A092
:103FE000070002C69447918AB9C683268720918A22
:103FF000B9C603264720F1769385F6FF01266D8E1C
:104000002322C720D44311668126ED8ED4C3832694
:1040100047208126D18E2322D720D8430127518FD4
:10402000D8C341018280B24785273EC669B7B247EF
:1040300085273EC679B7B246852636C665B7B246ED
:10404000852636C65DB7011106ECF32740F13EE444
:1040500093070008F3B74730A2671147636CF70670
:10406000173700001307C7218A07BA979C43BA97EE
:104070008287EF00600DB7C7000283B687FF226713
:10408000F32740F11316370017A700001307875CCA
:1040900032971863BA96056713070780BA978E0799
:1040A00037070002BA9794E393070008F3A7473055
:1040B000E26005618280EF00400975BFEF000009F2
:1040C0005DBFEF00C00845BFEF0080086DB79247A5
:1040D00085273EC2A267E5FF79BF011106ECF327F1
:1040E00040F13EE4A2671147636CF7041737000004
:1040F0001307471A8A07BA979C43BA978287EF102B
:10410000F00BF32740F113972700B7070002BA9787
:1041100023A007009C43E26081273EC292470561CD
:104120008280EF004002F1BFEF00305AD9BFEF00AC
:104130001052C1BFEF00F049E9B7824785273EC062
:10414000A267E5FF7DBF828082808280828082803C
:10415000828001458280014582800145828001453F
:10416000828001458280014582800145828001452F
:10417000828001458280014582800145828001451F
:10418000828001458280014582800145828001450F
:1044200082800145828001458280828082808280F4
:10443000828082808280828082808280828082806C
:10444000828082808280828082808280828082805C
:10445000828082808280828082808280828082804C
:10446000828082808280828082808280828082803C
:10447000828082808280828082808280828082802C
:10448000828082808280828082808280828082801C
:10449000828082808280828082808280828082800C
:1044A00082808280828082808280828082808280FC
:1044B00082808280828082808280828082808280EC
:1044C0008280828082808280FDBFF5BFEDBFE5BF24
:1044D00082808280828082808280828082808280CC
:1044E00082808280828082808280828082808280BC
:1044F00082808280828082808280828082808280AC
:10450000828082808280828082808280828082809B
:104510008280828082808280411113060008973554
:1045200000009385A5DA3755002006E422E03754D1
:10453000002097D02116E78000F513060008973574
:1045400000009385A5E01305041097D02116E7809D
:1045500080F31306000497350000938525E71305C3
:10456000042097D02116E78000F213060002973549
:1045700000009385A5D31305043097D02116E7805A
:1045800080F01306000497350000938525E8130595
:10459000044097D02116E78000EF130600049735FA
:1045A00000009385A5EA1305045097D02116E780F3
:1045B00080ED1306000297350000938525F413055E
:1045C000046097D02116E78000EC130600029735AF
:1045D00000009385A5EB1305047097D02116E780A2
:1045E00080EA3764002013060004973500009385A5
:1045F000E5EB1305048097D02116E780C0E813058A
:104600000490414697350000938545EE97D02116DA
:10461000E78060E7A26002640145410182800215E3
:104620009357C50117350000130545EF3E955C45CE
:10463000854613C7F7FF6312D602B726002003A6EC
:1046400046080126718F23A2E60803A786080127E2
:10465000D98F23A4F60801458280B726002003A63F
:1046600046080126D18F23A2F60883A78608812752
:104670007D8F23A4E608C5B7B726002083A7860848
:1046800001777D178127F98F23A4F6088280B72749
:10469000002023A0A70882807350003A7350203A6C
:1046A00093070009B307F502173500001305850DC0
:1046B0003E951C697390073B1C6D7390173B1C71F2
:1046C0007390273B1C757390373B1C797390473B65
:1046D0001C7D7390573B3C617390673B3C657390C6
:1046E000773B3C697390873B3C6D7390973B3C7183
:1046F0007390A73B3C757390B73B3C797390C73B75
:104700003C7D7390D73B5C617390E73B5C65739035
:10471000F73B1C617390073A01458280F3770430C0
:1047200093070008F3B707308280411106E4EFF0E9
:10473000FFFE7350403073504034A26041018280CC
:10474000F36704308280977702009387A71E631275
:10475000F518B70700201CE1978700009387C76D05
:104760009C43F99B178700002328F76C1C619396E4
:1047700005028192238207002384070003C7870074
:10478000136727002384E70003C7870013674700E8
:104790002384E70003C78700136717002384E7001B
:1047A00003C707011377F70E2388E70003C7070144
:1047B0001377F70D2388E70003C747031377D70F55
:1047C000238AE70203C747031377E70F238AE70229
:1047D00003C787031377D70F238CE70203C70703A9
:1047E0001377F70D2388E70203C707031377F70B47
:1047F0002388E70203C707031377F7072388E70235
:1048000003C787031377770F238CE7023797864711
:10481000130707C0B356D702238207042384070473
:10482000238607040CC53707800063F4E6061B8760
:1048300006009B5877001B58F700130EF00F1378F3
:10484000F80F13F3F80F637EDE1A9B5617009B9840
:104850006800BB88164183C6C7001377F7073B077C
:10486000174193E606082386D70023820701238099
:10487000670083C6C7001377F70F93F6F607238602
:10488000D70083C6070393E606082388D702238E42
:10489000E7022386C7000CC52306C50023380500A0
:1048A000233C05002330050223340502233805028A
:1048B000233C050223300504233405042338050472
:1048C000233C05042330050623040506A306050042
:1048D0008280977702009387E723631CF500B70770
:1048E00010201CE197870000938707559C43F59B98
:1048F00095BD97770200938767ED631CF500B72796
:1049000010201CE197870000938707539C43ED9B81
:1049100091BD977702009387E710631CF500B747B6
:1049200010201CE197870000938707519C43DD9B73
:1049300015BD9777020093876707631CF500B7677B
:1049400010201CE1978700009387074F9C43BD9B75
:1049500011BD9777020093876714631DF500B707B1
:1049600000281CE1978700009387074D9C4393E73D
:104970001700CDBB977702009387C7EC631DF50046
:10498000B70710281CE1978700009387E74A9C43EC
:1049900093E72700C1BB97770200938727F2631D37
:1049A000F500B72710281CE1978700009387C748B8
:1049B0009C4393E747007DB3977702009387071DD9
:1049C000631DF500B74710281CE197870000938707
:1049D000A7469C4393E7870071B3977702009387BC
:1049E00067D7E315F5D8B767102817770200233388
:1049F000F7D697870000938727449C4393E70701E6
:104A000095B303C7C700136707082386E70023820F
:104A100007012380670003C7C7001377F7072386C2
:104A2000E70003C707031377F7072388E70295B565
:104A30001861B14683478700BD8B63E1F60A97365C
:104A40000000938626018A07B6979C43B697828713
:104A50000333850363040308028303330503DDBFC7
:104A600003338502C5BF03330502EDB7411122E0D0
:104A700006E4834787022A84858B81C73C6191C302
:104A800082971C6083C78702898B89C73C6499C35E
:104A9000228582971C6083C78702918B89C73C68F7
:104AA00099C3228582971C6083C78702A18B89C71F
:104AB0003C6C99C3228582971C6083C78702C18B97
:104AC00091CB033304066307030022850264A260CE
:104AD000410159B7A260026441018280828083381B
:104AE0000501638C0802104D0DCA18618346D5007C
:104AF0008347470193F7F70FDD8EA306D50093F7A1
:104B0000070289EF5C4D639AC70083474700232C57
:104B1000050093F7D70F2302F70082805C4DBD4656
:104B2000BB07F64063F3F600C1478145544DE38B64
:104B3000F5FC13980602135808024698034808002B
:104B4000852685252300070154CDCDB7411122E0EC
:104B500006E42A84EFF03FBF1C6003C70703137706
:104B6000770F2388E70203C747031377B70F238A1A
:104B7000E70203C787031377E70F238CE702970742
:104B80000000938707F61CF8A2600264410182804E
:104B9000A9C983C6050001473A8699A08338050054
:104BA0000347D50083C7480193F7F70F5D8F93F74D
:104BB0000702EDDB1B080601A306E5001B03080046
:104BC00032879B0717001B8707008217819323807A
:104BD000D800AE9783C60700E1D21A86E31307FF19
:104BE000D5FE828097870000938707259C4341115B
:104BF00006E4858B17750200130545EA89E71775EA
:104C00000200130525D3EFF0BFE2A2600145410188
:104C1000828097870000938727229C43411106E4F6
:104C2000898B177502001305E5C189E71775020026
:104C3000130545EEEFF0DFDFA26001454101828000
:104C4000978700009387471F9C43411106E4918B8F
:104C500017750200130585C689E71775020013054D
:104C6000E5B6EFF0FFDCA260014541018280978745
:104C700000009387671C9C43411106E4A18B1775C4
:104C800002001305A5F089E717750200130585D901
:104C9000EFF01FDAA2600145410182809787000092
:104CA000938787199C43411106E4C18B1775020055
:104CB000130545AA89E717750200130525CFEFF004
:104CC0003FD7A2600145410182809787000093870A
:104CD000A7169C4317750200130545DC858B89E7F1
:104CE00017750200130505C5A1B3978700009387C8
:104CF000A7149C43177502001305C5B4898B89E777
:104D000017750200130505E125B397870000938707
:104D1000A7129C4317750200130545BA918B89E7CA
:104D200017750200130585AA21B3978700009387A2
:104D3000A7109C4317750200130545E5A18B89E771
:104D400017750200130505CEE5B19787000093871C
:104D5000A70E9C43177502001305C59FC18B89E7F9
:104D600017750200130585C4E1B1011106ECF327A4
:104D700040F102C2F32740F113972700B707000262
:104D8000BA9723A007009C4381273EC4A247F3673C
:104D9000443073005010F3274034A18BFDDBF32720
:104DA00040F113972700B7070002BA9723A0070026
:104DB0009C4381273EC6B247EFF09F98370710000B
:104DC000924785273EC292478127E39BE7FE02C2B6
:104DD000C5BFF32740F117870000130727061C43C0
:104DE00085271CC38280011106ECF32740F102C223
:104DF000F32740F113972700B7070002BA9723A0C3
:104E000007009C4381273EC4A247F36744307300E8
:104E10005010F3274034A18BFDDBF32740F11397AB
:104E20002700B7070002BA9723A007009C438127F9
:104E30003EC6B247EFF0DF90370710009247852754
:104E40003EC292478127E39BE7FE02C2C5BFF3271C
:104E500040F1178700001307A7FE1C4385271CC3DA
:104E60008280011106ECF32740F102C2F32740F1E2
:104E700013972700B7070002BA9723A007009C43A7
:104E800081273EC4A247F367443073005010F327D4
:104E90004034A18BFDDBF32740F113972700B707C0
:104EA0000002BA9723A007009C4381273EC6B24761
:104EB000EFF01F8937071000924785273EC29247BF
:104EC0008127E39BE7FE02C2C5BFF32740F11787A6
:104ED0000000130727F71C4385271CC38280197124
:104EE000A6F4CEECD6E4AA89B284AE8A1775020085
:104EF000130545C2973500009385C5DCCAF0D2E89A
:104F0000DAE05EFC86FCA2F802E402E802EC02F0C1
:104F100002F4CE94EFF0DFC70149173B0000130BFA
:104F20006BDC177A0200130AEABE973B0000938BF2
:104F3000EBDB631D5901E6704674A6740679E669D9
:104F4000466AA66A066BE27B09618280DA85528531
:104F500013147900EFF0DFC34E9463169400050933
:104F600093840408F9B703460400DE852800EF00A7
:104F7000D02F2C005285EFF0BFC10504F9BF197185
:104F8000A6F4CEECD6E4AA89B284AE8A17750200E4
:104F9000130545B8973500009385C5D2CAF0D2E80D
:104FA000DAE05EFC62F886FCA2F802E402E802ECB9
:104FB00002F002F4CE94EFF0BFBD0149173B0000B0
:104FC000130B4BD2177A0200130ACAB4930B400892
:104FD000173C0000130C8CD1631E5901E670467417
:104FE000A6740679E669466AA66A066BE27B427C8D
:104FF0000961828033047903DA855285EFF05FB965
:105000004E9463169400050993844408F1B703464F
:105010000400E2852800EF0050252C005285EFF0B7
:105020003FB70504F9BF757122E1CEF4DEE42A84AE
:10503000B689AE8B177502001305C5AD9735000014
:10504000938545CBD6ECE2E066FC06E5A6FCCAF803
:10505000D2F0DAE86AF8328C02E402E802EC02F0FC
:1050600002F4A299EFF0DFB2973A0000938A8AC760
:10507000973C0000938C8CC763103403AA600A64C9
:10508000E6744679A679067AE66A466BA66B066CE4
:10509000E27C427D49618280D68517750200130546
:1050A00065A7EFF0FFAE228A8144177B0200130B45
:1050B0006BA6639474010504C1B7D6855A85EFF0D9
:1050C0003FAD528D014963188901852493F4F40F93
:1050D000130A0A18F9BF03460D00E6852800EF0001
:1050E000D0182C005A850529EFF09FAA1379F90FE3
:1050F0000D0DD1BF91674111176801001308081BFE
:10510000938707089306060806E43E96C2889387AD
:1051100006F8468703C3070085070D07A30E67FE41
:10512000230F67FE03C3F7FFA30F67FEE394D7FEC9
:105130009386070893880818E39BC6FC91679387BA
:10514000A7381307A51817660100130626163E9503
:1051500085487D53930707F8B28603CE0700631492
:105160001E012380660085078D06E398E7FE1387FE
:10517000470813060618E31FA7FC91679387A73813
:105180001387A5180546BE957D55930707F8C28677
:1051900083C807006394C800A380A60085078D0616
:1051A000E398E7FE1387470813080818E31FB7FCC6
:1051B000973500009385059C1775020013058595AA
:1051C000EFF01F9D930500088D4613060008176534
:1051D00001001305A50DEFF01FE5A2609735000053
:1051E0009385459B177502001305C59241016FF029
:1051F0003F9A5D71A2E026FC4AF84EF486E452F034
:1052000056EC2A849302851097E300009383439021
:10521000914E8546854F8D44130920089309100847
:105220000947B387E20003C5070083C74500631938
:10523000F506114F63F3DE00054F9377F70F1B8AD6
:10524000F7FF8927B30077007A88137AFA0F13FEE5
:10525000F70F6307F805BB070F4193F7F70FB38705
:1052600097029148AE9763734E018548868A4685BA
:1052700005A03B83A8401373F30F3E930343030041
:105280006314F301A38FFAFF7D351375F50F850ABB
:10529000E311F5FF7D381378F80F9380400855BF70
:1052A0000507E31027F98526852E93F6F60F9382DE
:1052B000420893FEFE0F93834308E39336F791650C
:1052C0008147979800009388683B17D30000130329
:1052D000E37B130E4008938505413308F400BE8636
:1052E00001473305E800338F660003450500034F8F
:1052F0000F00B38E160105073B05E5412380AE0084
:105300008506E310C7FF93874708E398B7FC972506
:1053100000009385A579176502001305A57F32E487
:10532000EFF01F872266979500009385253522852B
:10533000EFF05FDC972500009385C57817650200C4
:105340001305457DEFF0DF84130640089305400800
:1053500017D5000013058573EFF07FC29725000075
:1053600093854578176502001305C57AEFF05F82D3
:105370000664A660E2744279A279027AE26A1306B0
:10538000400893054008179500001305252F61611B
:10539000FDB61D71A2E8A6E42E84AA84972500001C
:1053A0009385C576176502001305C57686ECCAE0BD
:1053B0004EFC52F856F45AF05EECEFF06FFD972772
:1053C00000009387A76D986383C78700138E8410AE
:1053D0003AE02304F100114509430547130F400843
:1053E000854E8D4F97220200938242EC9303100862
:1053F000B309E303914885463B09E540B307DE0066
:1054000083C017006395D0071B8A06008145BB8ABD
:1054100048410DA8B30BF60083CB0BFF639ADB0169
:10542000BB874701DA9783C707006383D7018140B1
:1054300005281378F80F9B070800E3CD57FD852555
:1054400093F5F50F9B87050063DE27013306B70050
:105450003306E6030148B387F703338BC400100813
:105460003E96D1BFB38736019697A3801700850675
:105470008528E39576F805239B07E3FF9B97870133
:10548000052705259BD787411377F70F130E4E0885
:105490001375F50FE3DE07F4972E0200938E8EF15D
:1054A000172F0100130FCFA711430547054E8D405D
:1054B00093042008130910088947B386FE0083C6A9
:1054C00006006382C6098507E39997FE0527052331
:1054D0001377F70F938E4E081373F30F130F4F08C4
:1054E000E31C27FD9725000093854564176502009E
:1054F00013054562EFF0CFE922868A851725010062
:105500001305C599EFF0FFCE97250000938505643C
:105510001765020013050560EFF08FE713064008DA
:10552000930540081725010013054597EFF03FA5A7
:10553000E6604664A6640669E279427AA27A027B52
:10554000E26B25618280B383E70191466373E300D8
:10555000854693F5F70FFD369B89F5FF892593F86E
:10556000F60F93F9F90F814613F5F50FE38D16F554
:105570001146637335010546B38F16021308010106
:105580009E82B285C29F05A03B08B6401378F80FF3
:105590007E98034808FF6314C801A38FC2FFFD353E
:1055A00093F5F50F8502E391C5FF852693F6F60F77
:1055B0009383430865BF130101BD71732334114206
:1055C00023308142233C914023382141AA841A91FF
:1055D000972500009385055E176502001305855326
:1055E000173900000349898DEFF08FDA9725000005
:1055F0009385455E176502001305C551EFF04FD93D
:1056000011677174930707418A97130404BF3E948E
:10561000930707202686B305F100A28613055009DB
:10562000854813080008368781473303F600034393
:105630000300636765122305071085070507E396D6
:1056400007FF938646084A96E39FB6FC972500001D
:105650009385455B176502001305C54BEFF04FD3EB
:105660001167130707412297A28723800700A381B0
:105670000708A38007002381070893874708E3965C
:10568000E7FE972500009385E5591765020013058D
:105690006548EFF0EFCF91671386C73813074408CA
:1056A0009387873023000400B306C40023800600DC
:1056B00023020408B306F400238006000504E31364
:1056C000E4FE972500009385E55717650200130552
:1056D0006544EFF0EFCB97250000938525591765BA
:1056E000020013052543EFF0AFCA916771749387E9
:1056F00007418A97130404BF3E94A6852285EFF0E4
:105700005FC9972500009385E557176502001305CB
:105710006540EFF0EFC713060008930500082685E3
:10572000EFF0EFFB972500009385455717650200C2
:105730001305453EEFF0CFC52285130640089305BB
:105740004008EFF0DF8311631A9183308142033404
:1057500001428334814103390141130101438280B5
:1057600023051711D9BD5D7186E4F32740F1139726
:105770002700B7070002BA9723A007009C438127A0
:105780003EC4A247F367443073005010F3274034FF
:10579000A18BFDDBF32740F113972700B707000229
:1057A000BA9723A007009C4381273EC6B247F32740
:1057B00040F11147636DF702172700001307C72C4C
:1057C0008A07BA979C43BA978287B727000C23A011
:1057D000070023A2070023A4070023A6070023A88D
:1057E000070023AA0700B707200C23A0070085673E
:1057F0009B870780F3A74730EFE09FF40146814580
:105800000545EFE0DFE1014681450945EFE03FE175
:10581000014681450D45EFE09FE0014681457D450C
:10582000EFE0FFDFF1650D46938505201765020067
:105830001305452EEFF08FB19775000093858548CD
:10584000176502001305052DEFF08FB41306E00273
:10585000972500009385054C0808EF00C0191735FF
:10586000000013052546EFF01FD50C081765020050
:105870001305452AEFF0CFB1A66061618280014730
:10588000B705000C0966994693170702F983AE978E
:10589000B29723A0070823A007100527E316D7FE19
:1058A000B717200C23A00700B727200C1D4798C36B
:1058B0003DBF0147B705000C0966994693170702DB
:1058C000F983AE97B29723A0071823A007200527D6
:1058D000E316D7FEB737200C23A00700B747200CEC
:1058E000F1B70147B705000C0966994693170702FF
:1058F000F983AE97B29723A0072823A00730052786
:10590000E316D7FEB757200C23A00700B767200C7B
:1059100071BF0147B705000C096699469317070246
:10592000F983AE97B29723A0073823A00740052735
:10593000E316D7FEB777200C23A00700B787200C0B
:10594000B5B7011106EC02C4F32740F101468145C9
:105950000145EFE0DFCCF1650D4693850520176525
:105960000200130525FDEFF06F9E9725000093853B
:10597000653D176502001305E5FBEFF06FA1F32706
:1059800040F1370700028A07BA9723A007009C431B
:1059900081273EC6B247F367443085475CC30F009A
:1059A000F00FEFE0FFD937071000A24785273EC46C
:1059B000A2478127E39BE7FE02C4C5BFF32740F15E
:1059C00017770000130747481C4385271CC38280B4
:1059D00001476314E60001458280B307E50005072F
:1059E000B386E50083C7070083C6F6FFE383D7FECF
:1059F0003B85D74082802A8309CA83830500230020
:105A000073007D16050385056DFA82804111972785
:105A100000009387274B22E0806306E43C708DE70B
:105A20006145EF002009972700009387A7409C63FA
:105A300028F01CE1B7E705009387C7EE1CC5AD470A
:105A40002316F50085471CE93C7017270000130753
:105A5000E73D1863886BA26002643305E502050523
:105A600088EB06050591410182801171BEF5B707EB
:105A7000008093C7F7FF3ED83ECEC177938787203B
:105A8000B2E9B6EDBAF1C2F9C6FD3ED097270000E3
:105A9000938747432AE82AF4886394092E860C08E2
:105AA00086E536E4EF00E02BC26723800700AE6096
:105AB00011618280972700009387C740AA85886379
:105AC0004DA8DDC583B785FF011122E806EC26E469
:105AD000138485FF63D307003E94AA84EF00101758
:105AE00097770000938787369C6391EF23340400F7
:105AF0009777000023BC87344264E2602685A26465
:105B000005616F00D014637EF40014603307D40085
:105B10006396E70098639C67369718E01CE4C9BF5A
:105B2000BA87986719C3E37DE4FE94633386D70090
:105B3000631F86001060B29694E33386D700E31D9E
:105B4000C7FA10631867B29694E398E775B7637560
:105B5000C400B1479CC04DB71060B306C4006316C3
:105B6000D70014631867B29614E018E480E769B7A9
:105B70008280938775007971E19B4AE806F422F0F0
:105B800026EC4EE4A1074147414963E3E7003E8923
:105B9000370700801347F7FF6364F700637CB900A1
:105BA000B1471CC10145A2700274E2644269A26956
:105BB00045618280AA84EF0070099777000093877F
:105BC000E72898633A8405EC977700009387872845
:105BD0009C6389EB81452685EF00300097770000B4
:105BE00023BAA726CA852685EF00207FFD596311B9
:105BF0003507B1479CC02685EF00700565B71C606E
:105C0000BB87274163C30704BD4663D7F6001CE08A
:105C10003E942330240101A81C6463168702177781
:105C200000002335F7222685EF0070021305F400EB
:105C3000930784006199BB07F540B5D73E94BB0735
:105C4000F0401CE08DB71CE7F9BF22870064A5BFB8
:105C5000130475006198E30E85FAB305A440268508
:105C6000EF00A077E31735FB69B739714AF003A954
:105C7000C50022F84EEC56E406FC26F452E85AE041
:105C80002E84B28AB68963E2260B83D7050113F707
:105C9000074851CB14508D448C6DBB84D402894687
:105CA00018602A8A0D8F1B0B0700BBC4D402938691
:105CB0001900DA9663F5D4009B841900B99C93F718
:105CC0000740C9C7A6855285EFF0BFEA2A890DE5CE
:105CD000B1472320FA00835704017D5593E7070459
:105CE0002318F400E2704274A2740279E269426AF5
:105CF000A26A026B216182800C6C5A86EFF0BFCFE2
:105D00008357040193F7F7B793E707082318F400C4
:105D1000233C240104D05A99BB84644123302401DC
:105D200044C41B89090063F429011B890900086028
:105D30004A86D685EF00206F5C440145BB8727412A
:105D40005CC41C603E992330240169BF26865285BD
:105D5000EF0000702A894DFD0C6C5285EFF07FD664
:105D600085BF83D705011571A6E5CAE14EFD52F93D
:105D700086EDA2E956F55AF15EED62E966E56AE163
:105D800093F707082A8A2E89B2848149A1C79C6D9E
:105D9000B1E39305000436E4EFF0BFDD2330A90042
:105DA000233CA900A2661DE1B1472320FA007D55DE
:105DB000EE604E64AE640E69EA794A7AAA7A0A7B8A
:105DC000EA6B4A6CAA6C0A6D2D618280930700040D
:105DD0002320F90293070002A30CF102FD5A930756
:105DE000000302DA230DF10236EC930B5002139CF0
:105DF0000A02172B0000130B6B04854C2684834783
:105E0000040099C3639C77093B0D9440630E0D0019
:105E1000EA862686CA855285EFF03FE56308551B62
:105E2000D256BB86A60136DA834704006380071A80
:105E30009304140062F002F4A301010682DC83C51E
:105E4000040015465A85EF00605C1384140029E9AC
:105E5000825713F7070109C713070002A301E106E0
:105E600013F7870009C71307B002A301E10683C631
